{
  "contractName": "SolnSquareVerifier",
  "abi": [
    {
      "constant": true,
      "inputs": [
        {
          "internalType": "bytes4",
          "name": "interfaceId",
          "type": "bytes4"
        }
      ],
      "name": "supportsInterface",
      "outputs": [
        {
          "internalType": "bool",
          "name": "",
          "type": "bool"
        }
      ],
      "payable": false,
      "stateMutability": "view",
      "type": "function"
    },
    {
      "constant": true,
      "inputs": [],
      "name": "name",
      "outputs": [
        {
          "internalType": "string",
          "name": "",
          "type": "string"
        }
      ],
      "payable": false,
      "stateMutability": "view",
      "type": "function"
    },
    {
      "constant": true,
      "inputs": [
        {
          "internalType": "uint256",
          "name": "tokenId",
          "type": "uint256"
        }
      ],
      "name": "getApproved",
      "outputs": [
        {
          "internalType": "address",
          "name": "",
          "type": "address"
        }
      ],
      "payable": false,
      "stateMutability": "view",
      "type": "function"
    },
    {
      "constant": false,
      "inputs": [
        {
          "internalType": "address",
          "name": "to",
          "type": "address"
        },
        {
          "internalType": "uint256",
          "name": "tokenId",
          "type": "uint256"
        }
      ],
      "name": "approve",
      "outputs": [],
      "payable": false,
      "stateMutability": "nonpayable",
      "type": "function"
    },
    {
      "constant": true,
      "inputs": [],
      "name": "totalSupply",
      "outputs": [
        {
          "internalType": "uint256",
          "name": "",
          "type": "uint256"
        }
      ],
      "payable": false,
      "stateMutability": "view",
      "type": "function"
    },
    {
      "constant": false,
      "inputs": [
        {
          "internalType": "address",
          "name": "from",
          "type": "address"
        },
        {
          "internalType": "address",
          "name": "to",
          "type": "address"
        },
        {
          "internalType": "uint256",
          "name": "tokenId",
          "type": "uint256"
        }
      ],
      "name": "transferFrom",
      "outputs": [],
      "payable": false,
      "stateMutability": "nonpayable",
      "type": "function"
    },
    {
      "constant": false,
      "inputs": [
        {
          "internalType": "bytes32",
          "name": "_myid",
          "type": "bytes32"
        },
        {
          "internalType": "string",
          "name": "_result",
          "type": "string"
        }
      ],
      "name": "__callback",
      "outputs": [],
      "payable": false,
      "stateMutability": "nonpayable",
      "type": "function"
    },
    {
      "constant": true,
      "inputs": [
        {
          "internalType": "address",
          "name": "owner",
          "type": "address"
        },
        {
          "internalType": "uint256",
          "name": "index",
          "type": "uint256"
        }
      ],
      "name": "tokenOfOwnerByIndex",
      "outputs": [
        {
          "internalType": "uint256",
          "name": "",
          "type": "uint256"
        }
      ],
      "payable": false,
      "stateMutability": "view",
      "type": "function"
    },
    {
      "constant": false,
      "inputs": [
        {
          "internalType": "bytes32",
          "name": "_myid",
          "type": "bytes32"
        },
        {
          "internalType": "string",
          "name": "_result",
          "type": "string"
        },
        {
          "internalType": "bytes",
          "name": "_proof",
          "type": "bytes"
        }
      ],
      "name": "__callback",
      "outputs": [],
      "payable": false,
      "stateMutability": "nonpayable",
      "type": "function"
    },
    {
      "constant": false,
      "inputs": [
        {
          "internalType": "address",
          "name": "to",
          "type": "address"
        },
        {
          "internalType": "uint256",
          "name": "tokenId",
          "type": "uint256"
        }
      ],
      "name": "mint",
      "outputs": [
        {
          "internalType": "bool",
          "name": "",
          "type": "bool"
        }
      ],
      "payable": false,
      "stateMutability": "nonpayable",
      "type": "function"
    },
    {
      "constant": false,
      "inputs": [
        {
          "internalType": "address",
          "name": "from",
          "type": "address"
        },
        {
          "internalType": "address",
          "name": "to",
          "type": "address"
        },
        {
          "internalType": "uint256",
          "name": "tokenId",
          "type": "uint256"
        }
      ],
      "name": "safeTransferFrom",
      "outputs": [],
      "payable": false,
      "stateMutability": "nonpayable",
      "type": "function"
    },
    {
      "constant": true,
      "inputs": [
        {
          "internalType": "uint256",
          "name": "index",
          "type": "uint256"
        }
      ],
      "name": "tokenByIndex",
      "outputs": [
        {
          "internalType": "uint256",
          "name": "",
          "type": "uint256"
        }
      ],
      "payable": false,
      "stateMutability": "view",
      "type": "function"
    },
    {
      "constant": true,
      "inputs": [
        {
          "internalType": "uint256",
          "name": "tokenId",
          "type": "uint256"
        }
      ],
      "name": "ownerOf",
      "outputs": [
        {
          "internalType": "address",
          "name": "",
          "type": "address"
        }
      ],
      "payable": false,
      "stateMutability": "view",
      "type": "function"
    },
    {
      "constant": true,
      "inputs": [
        {
          "internalType": "address",
          "name": "owner",
          "type": "address"
        }
      ],
      "name": "balanceOf",
      "outputs": [
        {
          "internalType": "uint256",
          "name": "",
          "type": "uint256"
        }
      ],
      "payable": false,
      "stateMutability": "view",
      "type": "function"
    },
    {
      "constant": true,
      "inputs": [],
      "name": "symbol",
      "outputs": [
        {
          "internalType": "string",
          "name": "",
          "type": "string"
        }
      ],
      "payable": false,
      "stateMutability": "view",
      "type": "function"
    },
    {
      "constant": false,
      "inputs": [
        {
          "internalType": "address",
          "name": "to",
          "type": "address"
        },
        {
          "internalType": "bool",
          "name": "approved",
          "type": "bool"
        }
      ],
      "name": "setApprovalForAll",
      "outputs": [],
      "payable": false,
      "stateMutability": "nonpayable",
      "type": "function"
    },
    {
      "constant": false,
      "inputs": [
        {
          "internalType": "bool",
          "name": "state",
          "type": "bool"
        }
      ],
      "name": "setState",
      "outputs": [],
      "payable": false,
      "stateMutability": "nonpayable",
      "type": "function"
    },
    {
      "constant": true,
      "inputs": [],
      "name": "_owner",
      "outputs": [
        {
          "internalType": "address",
          "name": "",
          "type": "address"
        }
      ],
      "payable": false,
      "stateMutability": "view",
      "type": "function"
    },
    {
      "constant": false,
      "inputs": [
        {
          "internalType": "address",
          "name": "from",
          "type": "address"
        },
        {
          "internalType": "address",
          "name": "to",
          "type": "address"
        },
        {
          "internalType": "uint256",
          "name": "tokenId",
          "type": "uint256"
        },
        {
          "internalType": "bytes",
          "name": "_data",
          "type": "bytes"
        }
      ],
      "name": "safeTransferFrom",
      "outputs": [],
      "payable": false,
      "stateMutability": "nonpayable",
      "type": "function"
    },
    {
      "constant": true,
      "inputs": [
        {
          "internalType": "uint256",
          "name": "tokenId",
          "type": "uint256"
        }
      ],
      "name": "tokenURI",
      "outputs": [
        {
          "internalType": "string",
          "name": "",
          "type": "string"
        }
      ],
      "payable": false,
      "stateMutability": "view",
      "type": "function"
    },
    {
      "constant": true,
      "inputs": [],
      "name": "baseTokenURI",
      "outputs": [
        {
          "internalType": "string",
          "name": "",
          "type": "string"
        }
      ],
      "payable": false,
      "stateMutability": "view",
      "type": "function"
    },
    {
      "constant": true,
      "inputs": [
        {
          "internalType": "address",
          "name": "owner",
          "type": "address"
        },
        {
          "internalType": "address",
          "name": "operator",
          "type": "address"
        }
      ],
      "name": "isApprovedForAll",
      "outputs": [
        {
          "internalType": "bool",
          "name": "",
          "type": "bool"
        }
      ],
      "payable": false,
      "stateMutability": "view",
      "type": "function"
    },
    {
      "constant": false,
      "inputs": [
        {
          "internalType": "address",
          "name": "newOwner",
          "type": "address"
        }
      ],
      "name": "transferOwnership",
      "outputs": [],
      "payable": false,
      "stateMutability": "nonpayable",
      "type": "function"
    },
    {
      "inputs": [
        {
          "internalType": "string",
          "name": "name",
          "type": "string"
        },
        {
          "internalType": "string",
          "name": "symbol",
          "type": "string"
        }
      ],
      "payable": false,
      "stateMutability": "nonpayable",
      "type": "constructor"
    },
    {
      "anonymous": false,
      "inputs": [
        {
          "indexed": false,
          "internalType": "uint256",
          "name": "index",
          "type": "uint256"
        }
      ],
      "name": "SolutionAdded",
      "type": "event"
    },
    {
      "anonymous": false,
      "inputs": [
        {
          "indexed": true,
          "internalType": "address",
          "name": "from",
          "type": "address"
        },
        {
          "indexed": true,
          "internalType": "address",
          "name": "to",
          "type": "address"
        },
        {
          "indexed": true,
          "internalType": "uint256",
          "name": "tokenId",
          "type": "uint256"
        }
      ],
      "name": "Transfer",
      "type": "event"
    },
    {
      "anonymous": false,
      "inputs": [
        {
          "indexed": true,
          "internalType": "address",
          "name": "owner",
          "type": "address"
        },
        {
          "indexed": true,
          "internalType": "address",
          "name": "approved",
          "type": "address"
        },
        {
          "indexed": true,
          "internalType": "uint256",
          "name": "tokenId",
          "type": "uint256"
        }
      ],
      "name": "Approval",
      "type": "event"
    },
    {
      "anonymous": false,
      "inputs": [
        {
          "indexed": true,
          "internalType": "address",
          "name": "owner",
          "type": "address"
        },
        {
          "indexed": true,
          "internalType": "address",
          "name": "operator",
          "type": "address"
        },
        {
          "indexed": false,
          "internalType": "bool",
          "name": "approved",
          "type": "bool"
        }
      ],
      "name": "ApprovalForAll",
      "type": "event"
    },
    {
      "anonymous": false,
      "inputs": [
        {
          "indexed": false,
          "internalType": "address",
          "name": "caller",
          "type": "address"
        }
      ],
      "name": "Paused",
      "type": "event"
    },
    {
      "anonymous": false,
      "inputs": [
        {
          "indexed": false,
          "internalType": "address",
          "name": "caller",
          "type": "address"
        }
      ],
      "name": "Unpaused",
      "type": "event"
    },
    {
      "anonymous": false,
      "inputs": [
        {
          "indexed": false,
          "internalType": "address",
          "name": "newOwner",
          "type": "address"
        }
      ],
      "name": "OwnershipChanged",
      "type": "event"
    },
    {
      "constant": false,
      "inputs": [
        {
          "internalType": "uint256[2]",
          "name": "a",
          "type": "uint256[2]"
        },
        {
          "internalType": "uint256[2][2]",
          "name": "b",
          "type": "uint256[2][2]"
        },
        {
          "internalType": "uint256[2]",
          "name": "c",
          "type": "uint256[2]"
        },
        {
          "internalType": "uint256[2]",
          "name": "input",
          "type": "uint256[2]"
        }
      ],
      "name": "addSolution",
      "outputs": [],
      "payable": false,
      "stateMutability": "nonpayable",
      "type": "function"
    },
    {
      "constant": false,
      "inputs": [
        {
          "internalType": "address",
          "name": "to",
          "type": "address"
        },
        {
          "internalType": "uint256",
          "name": "tokenId",
          "type": "uint256"
        },
        {
          "internalType": "uint256[2]",
          "name": "a",
          "type": "uint256[2]"
        },
        {
          "internalType": "uint256[2][2]",
          "name": "b",
          "type": "uint256[2][2]"
        },
        {
          "internalType": "uint256[2]",
          "name": "c",
          "type": "uint256[2]"
        },
        {
          "internalType": "uint256[2]",
          "name": "input",
          "type": "uint256[2]"
        }
      ],
      "name": "mintNFT",
      "outputs": [],
      "payable": false,
      "stateMutability": "nonpayable",
      "type": "function"
    }
  ],
  "bytecode": "0x60806040526040516200001290620004bc565b604051809103906000f0801580156200002f573d6000803e3d6000fd5b50601360006101000a81548173ffffffffffffffffffffffffffffffffffffffff021916908373ffffffffffffffffffffffffffffffffffffffff16021790555060006016553480156200008257600080fd5b5060405162004ee938038062004ee983398181016040526040811015620000a857600080fd5b8101908080516040519392919084640100000000821115620000c957600080fd5b83820191506020820185811115620000e057600080fd5b8251866001820283011164010000000082111715620000fe57600080fd5b8083526020830192505050908051906020019080838360005b838110156200013457808201518184015260208101905062000117565b50505050905090810190601f168015620001625780820380516001836020036101000a031916815260200191505b50604052602001805160405193929190846401000000008211156200018657600080fd5b838201915060208201858111156200019d57600080fd5b8251866001820283011164010000000082111715620001bb57600080fd5b8083526020830192505050908051906020019080838360005b83811015620001f1578082015181840152602081019050620001d4565b50505050905090810190601f1680156200021f5780820380516001836020036101000a031916815260200191505b50604052505050818181816040518060600160405280603f815260200162004eaa603f9139336000806101000a81548173ffffffffffffffffffffffffffffffffffffffff021916908373ffffffffffffffffffffffffffffffffffffffff1602179055507f595ee9ffef04d4d652b768860c56905a48f5ab79124bb3b2279df1885536991d33604051808273ffffffffffffffffffffffffffffffffffffffff1673ffffffffffffffffffffffffffffffffffffffff16815260200191505060405180910390a160008060146101000a81548160ff0219169083151502179055507f5db9ee0a495bf2e6ff9c91a7834c1ba4fdd244a5e8aa4e537bd38aeae4b073aa33604051808273ffffffffffffffffffffffffffffffffffffffff1673ffffffffffffffffffffffffffffffffffffffff16815260200191505060405180910390a16200037c6301ffc9a760e01b6200041c60201b60201c565b620003946380ac58cd60e01b6200041c60201b60201c565b620003ac63780e9d6360e01b6200041c60201b60201c565b82600f9080519060200190620003c4929190620004ca565b508160109080519060200190620003dd929190620004ca565b508060119080519060200190620003f6929190620004ca565b506200040f635b5e139f60e01b6200041c60201b60201c565b5050505050505062000579565b63ffffffff60e01b817bffffffffffffffffffffffffffffffffffffffffffffffffffffffff191614156200045057600080fd5b6001806000837bffffffffffffffffffffffffffffffffffffffffffffffffffffffff19167bffffffffffffffffffffffffffffffffffffffffffffffffffffffff1916815260200190815260200160002060006101000a81548160ff02191690831515021790555050565b61111c8062003d8e83390190565b828054600181600116156101000203166002900490600052602060002090601f016020900481019282601f106200050d57805160ff19168380011785556200053e565b828001600101855582156200053e579182015b828111156200053d57825182559160200191906001019062000520565b5b5090506200054d919062000551565b5090565b6200057691905b808211156200057257600081600090555060010162000558565b5090565b90565b61380580620005896000396000f3fe608060405234801561001057600080fd5b50600436106101735760003560e01c80635507dddc116100de578063b2bdfa7b11610097578063d547cfb711610071578063d547cfb714610c8b578063e985e9c514610d0e578063f2fde38b14610d8a578063f76b443114610dce57610173565b8063b2bdfa7b14610a95578063b88d4fde14610adf578063c87b56dd14610be457610173565b80635507dddc146107415780636352211e146108cc57806370a082311461093a57806395d89b4114610992578063a22cb46514610a15578063ac9f022214610a6557610173565b806327dc297e1161013057806327dc297e146103a85780632f745c591461046d57806338bbfa50146104cf57806340c10f191461062b57806342842e0e146106915780634f6ccce7146106ff57610173565b806301ffc9a71461017857806306fdde03146101dd578063081812fc14610260578063095ea7b3146102ce57806318160ddd1461031c57806323b872dd1461033a575b600080fd5b6101c36004803603602081101561018e57600080fd5b8101908080357bffffffffffffffffffffffffffffffffffffffffffffffffffffffff19169060200190929190505050610f2f565b604051808215151515815260200191505060405180910390f35b6101e5610f97565b6040518080602001828103825283818151815260200191508051906020019080838360005b8381101561022557808201518184015260208101905061020a565b50505050905090810190601f1680156102525780820380516001836020036101000a031916815260200191505b509250505060405180910390f35b61028c6004803603602081101561027657600080fd5b8101908080359060200190929190505050611039565b604051808273ffffffffffffffffffffffffffffffffffffffff1673ffffffffffffffffffffffffffffffffffffffff16815260200191505060405180910390f35b61031a600480360360408110156102e457600080fd5b81019080803573ffffffffffffffffffffffffffffffffffffffff169060200190929190803590602001909291905050506110f1565b005b6103246112e7565b6040518082815260200191505060405180910390f35b6103a66004803603606081101561035057600080fd5b81019080803573ffffffffffffffffffffffffffffffffffffffff169060200190929190803573ffffffffffffffffffffffffffffffffffffffff169060200190929190803590602001909291905050506112f4565b005b61046b600480360360408110156103be57600080fd5b8101908080359060200190929190803590602001906401000000008111156103e557600080fd5b8201836020820111156103f757600080fd5b8035906020019184600183028401116401000000008311171561041957600080fd5b91908080601f016020809104026020016040519081016040528093929190818152602001838380828437600081840152601f19601f820116905080830192505050505050509192919290505050611317565b005b6104b96004803603604081101561048357600080fd5b81019080803573ffffffffffffffffffffffffffffffffffffffff1690602001909291908035906020019092919050505061135a565b6040518082815260200191505060405180910390f35b610629600480360360608110156104e557600080fd5b81019080803590602001909291908035906020019064010000000081111561050c57600080fd5b82018360208201111561051e57600080fd5b8035906020019184600183028401116401000000008311171561054057600080fd5b91908080601f016020809104026020016040519081016040528093929190818152602001838380828437600081840152601f19601f820116905080830192505050505050509192919290803590602001906401000000008111156105a357600080fd5b8201836020820111156105b557600080fd5b803590602001918460018302840111640100000000831117156105d757600080fd5b91908080601f016020809104026020016040519081016040528093929190818152602001838380828437600081840152601f19601f8201169050808301925050505050505091929192905050506113cd565b005b6106776004803603604081101561064157600080fd5b81019080803573ffffffffffffffffffffffffffffffffffffffff169060200190929190803590602001909291905050506113d2565b604051808215151515815260200191505060405180910390f35b6106fd600480360360608110156106a757600080fd5b81019080803573ffffffffffffffffffffffffffffffffffffffff169060200190929190803573ffffffffffffffffffffffffffffffffffffffff169060200190929190803590602001909291905050506114b3565b005b61072b6004803603602081101561071557600080fd5b81019080803590602001909291905050506114d3565b6040518082815260200191505060405180910390f35b6108ca600480360361018081101561075857600080fd5b81019080803573ffffffffffffffffffffffffffffffffffffffff1690602001909291908035906020019092919080604001906002806020026040519081016040528092919082600260200280828437600081840152601f19601f82011690508083019250505050505091929192908060800190600280602002604051908101604052809291906000905b82821015610837578382604002016002806020026040519081016040528092919082600260200280828437600081840152601f19601f820116905080830192505050505050815260200190600101906107e3565b50505050919291929080604001906002806020026040519081016040528092919082600260200280828437600081840152601f19601f820116905080830192505050505050919291929080604001906002806020026040519081016040528092919082600260200280828437600081840152601f19601f8201169050808301925050505050509192919290505050611507565b005b6108f8600480360360208110156108e257600080fd5b8101908080359060200190929190505050611857565b604051808273ffffffffffffffffffffffffffffffffffffffff1673ffffffffffffffffffffffffffffffffffffffff16815260200191505060405180910390f35b61097c6004803603602081101561095057600080fd5b81019080803573ffffffffffffffffffffffffffffffffffffffff169060200190929190505050611894565b6040518082815260200191505060405180910390f35b61099a611986565b6040518080602001828103825283818151815260200191508051906020019080838360005b838110156109da5780820151818401526020810190506109bf565b50505050905090810190601f168015610a075780820380516001836020036101000a031916815260200191505b509250505060405180910390f35b610a6360048036036040811015610a2b57600080fd5b81019080803573ffffffffffffffffffffffffffffffffffffffff169060200190929190803515159060200190929190505050611a28565b005b610a9360048036036020811015610a7b57600080fd5b81019080803515159060200190929190505050611b62565b005b610a9d611dab565b604051808273ffffffffffffffffffffffffffffffffffffffff1673ffffffffffffffffffffffffffffffffffffffff16815260200191505060405180910390f35b610be260048036036080811015610af557600080fd5b81019080803573ffffffffffffffffffffffffffffffffffffffff169060200190929190803573ffffffffffffffffffffffffffffffffffffffff1690602001909291908035906020019092919080359060200190640100000000811115610b5c57600080fd5b820183602082011115610b6e57600080fd5b80359060200191846001830284011164010000000083111715610b9057600080fd5b91908080601f016020809104026020016040519081016040528093929190818152602001838380828437600081840152601f19601f820116905080830192505050505050509192919290505050611dd0565b005b610c1060048036036020811015610bfa57600080fd5b8101908080359060200190929190505050611df6565b6040518080602001828103825283818151815260200191508051906020019080838360005b83811015610c50578082015181840152602081019050610c35565b50505050905090810190601f168015610c7d5780820380516001836020036101000a031916815260200191505b509250505060405180910390f35b610c93611ebd565b6040518080602001828103825283818151815260200191508051906020019080838360005b83811015610cd3578082015181840152602081019050610cb8565b50505050905090810190601f168015610d005780820380516001836020036101000a031916815260200191505b509250505060405180910390f35b610d7060048036036040811015610d2457600080fd5b81019080803573ffffffffffffffffffffffffffffffffffffffff169060200190929190803573ffffffffffffffffffffffffffffffffffffffff169060200190929190505050611f5f565b604051808215151515815260200191505060405180910390f35b610dcc60048036036020811015610da057600080fd5b81019080803573ffffffffffffffffffffffffffffffffffffffff169060200190929190505050611ff3565b005b610f2d6004803603610140811015610de557600080fd5b8101908080604001906002806020026040519081016040528092919082600260200280828437600081840152601f19601f82011690508083019250505050505091929192908060800190600280602002604051908101604052809291906000905b82821015610e9a578382604002016002806020026040519081016040528092919082600260200280828437600081840152601f19601f82011690508083019250505050505081526020019060010190610e46565b50505050919291929080604001906002806020026040519081016040528092919082600260200280828437600081840152601f19601f820116905080830192505050505050919291929080604001906002806020026040519081016040528092919082600260200280828437600081840152601f19601f82011690508083019250505050505091929192905050506121b1565b005b600060016000837bffffffffffffffffffffffffffffffffffffffffffffffffffffffff19167bffffffffffffffffffffffffffffffffffffffffffffffffffffffff1916815260200190815260200160002060009054906101000a900460ff169050919050565b6060600f8054600181600116156101000203166002900480601f01602080910402602001604051908101604052809291908181526020018280546001816001161561010002031660029004801561102f5780601f106110045761010080835404028352916020019161102f565b820191906000526020600020905b81548152906001019060200180831161101257829003601f168201915b5050505050905090565b600061104482612384565b6110b6576040517f08c379a00000000000000000000000000000000000000000000000000000000081526004018080602001828103825260148152602001807f546f6b656e20646f6573206e6f7420657869737400000000000000000000000081525060200191505060405180910390fd5b6003600083815260200190815260200160002060009054906101000a900473ffffffffffffffffffffffffffffffffffffffff169050919050565b60006110fc82611857565b90508073ffffffffffffffffffffffffffffffffffffffff168373ffffffffffffffffffffffffffffffffffffffff161415611183576040517f08c379a000000000000000000000000000000000000000000000000000000000815260040180806020018281038252603e815260200180613793603e913960400191505060405180910390fd5b8073ffffffffffffffffffffffffffffffffffffffff163373ffffffffffffffffffffffffffffffffffffffff1614806111c357506111c28133611f5f565b5b611235576040517f08c379a00000000000000000000000000000000000000000000000000000000081526004018080602001828103825260188152602001807f43616c6c6572206973206e6f7420617574686f72697a6564000000000000000081525060200191505060405180910390fd5b826003600084815260200190815260200160002060006101000a81548173ffffffffffffffffffffffffffffffffffffffff021916908373ffffffffffffffffffffffffffffffffffffffff160217905550818373ffffffffffffffffffffffffffffffffffffffff168273ffffffffffffffffffffffffffffffffffffffff167f8c5be1e5ebec7d5bd14f71427d1e84f3dd0314c0f7b2291e5b200ac8c7c3b92560405160405180910390a4505050565b6000600880549050905090565b6112fe33826123f6565b61130757600080fd5b61131283838361248b565b505050565b611356828260006040519080825280601f01601f1916602001820160405280156113505781602001600182028038833980820191505090505b506113cd565b5050565b600061136583611894565b821061137057600080fd5b600660008473ffffffffffffffffffffffffffffffffffffffff1673ffffffffffffffffffffffffffffffffffffffff16815260200190815260200160002082815481106113ba57fe5b9060005260206000200154905092915050565b505050565b60003373ffffffffffffffffffffffffffffffffffffffff166000809054906101000a900473ffffffffffffffffffffffffffffffffffffffff1673ffffffffffffffffffffffffffffffffffffffff1614611496576040517f08c379a000000000000000000000000000000000000000000000000000000000815260040180806020018281038252601e8152602001807f4d757374206265206f776e6572206f66207468697320636f6e7472616374000081525060200191505060405180910390fd5b6114a083836124af565b6114a9826124d0565b6001905092915050565b6114ce83838360405180602001604052806000815250611dd0565b505050565b60006114dd6112e7565b82106114e857600080fd5b600882815481106114f557fe5b90600052602060002001549050919050565b60008160006002811061151657fe5b60200201518260016002811061152857fe5b60200201516040516020018083815260200182815260200192505050604051602081830303815290604052805190602001209050600073ffffffffffffffffffffffffffffffffffffffff166015600083815260200190815260200160002060010160009054906101000a900473ffffffffffffffffffffffffffffffffffffffff1673ffffffffffffffffffffffffffffffffffffffff1614611634576040517f08c379a00000000000000000000000000000000000000000000000000000000081526004018080602001828103825260168152602001807f536f6c7574696f6e206973206e6f7420756e697175650000000000000000000081525060200191505060405180910390fd5b6000601360009054906101000a900473ffffffffffffffffffffffffffffffffffffffff1673ffffffffffffffffffffffffffffffffffffffff1663621e9ec0878787876040518563ffffffff1660e01b81526004018085600260200280838360005b838110156116b2578082015181840152602081019050611697565b505050509050018460026000925b818410156117065782846020020151600260200280838360005b838110156116f55780820151818401526020810190506116da565b5050505090500192600101926116c0565b9250505083600260200280838360005b83811015611731578082015181840152602081019050611716565b5050505090500182600260200280838360005b8381101561175f578082015181840152602081019050611744565b50505050905001945050505050602060405180830381600087803b15801561178657600080fd5b505af115801561179a573d6000803e3d6000fd5b505050506040513d60208110156117b057600080fd5b8101908080519060200190929190505050905080611836576040517f08c379a000000000000000000000000000000000000000000000000000000000815260040180806020018281038252601b8152602001807f536f6c7574696f6e2063616e6e6f74206265207665726966696564000000000081525060200191505060405180910390fd5b611842868686866121b1565b61184c88886113d2565b505050505050505050565b60006002600083815260200190815260200160002060009054906101000a900473ffffffffffffffffffffffffffffffffffffffff169050919050565b60008073ffffffffffffffffffffffffffffffffffffffff168273ffffffffffffffffffffffffffffffffffffffff161415611938576040517f08c379a00000000000000000000000000000000000000000000000000000000081526004018080602001828103825260158152602001807f496e76616c6964206f776e65722061646472657373000000000000000000000081525060200191505060405180910390fd5b61197f600460008473ffffffffffffffffffffffffffffffffffffffff1673ffffffffffffffffffffffffffffffffffffffff168152602001908152602001600020612621565b9050919050565b606060108054600181600116156101000203166002900480601f016020809104026020016040519081016040528092919081815260200182805460018160011615610100020316600290048015611a1e5780601f106119f357610100808354040283529160200191611a1e565b820191906000526020600020905b815481529060010190602001808311611a0157829003601f168201915b5050505050905090565b3373ffffffffffffffffffffffffffffffffffffffff168273ffffffffffffffffffffffffffffffffffffffff161415611a6157600080fd5b80600560003373ffffffffffffffffffffffffffffffffffffffff1673ffffffffffffffffffffffffffffffffffffffff16815260200190815260200160002060008473ffffffffffffffffffffffffffffffffffffffff1673ffffffffffffffffffffffffffffffffffffffff16815260200190815260200160002060006101000a81548160ff0219169083151502179055508173ffffffffffffffffffffffffffffffffffffffff163373ffffffffffffffffffffffffffffffffffffffff167f17307eab39ab6107e8899845ad3d59bd9653f200f220920489ca2b5937696c3183604051808215151515815260200191505060405180910390a35050565b3373ffffffffffffffffffffffffffffffffffffffff166000809054906101000a900473ffffffffffffffffffffffffffffffffffffffff1673ffffffffffffffffffffffffffffffffffffffff1614611c24576040517f08c379a000000000000000000000000000000000000000000000000000000000815260040180806020018281038252601e8152602001807f4d757374206265206f776e6572206f66207468697320636f6e7472616374000081525060200191505060405180910390fd5b801515600060149054906101000a900460ff1615151415611cad576040517f08c379a000000000000000000000000000000000000000000000000000000000815260040180806020018281038252601a8152602001807f416c726561647920696e2072657175657374656420737461746500000000000081525060200191505060405180910390fd5b80600060146101000a81548160ff021916908315150217905550600060149054906101000a900460ff1615611d44577f62e78cea01bee320cd4e420270b5ea74000d11b0c9f74754ebdbfc544b05a25833604051808273ffffffffffffffffffffffffffffffffffffffff1673ffffffffffffffffffffffffffffffffffffffff16815260200191505060405180910390a1611da8565b7f5db9ee0a495bf2e6ff9c91a7834c1ba4fdd244a5e8aa4e537bd38aeae4b073aa33604051808273ffffffffffffffffffffffffffffffffffffffff1673ffffffffffffffffffffffffffffffffffffffff16815260200191505060405180910390a15b50565b6000809054906101000a900473ffffffffffffffffffffffffffffffffffffffff1681565b611ddb8484846112f4565b611de78484848461262f565b611df057600080fd5b50505050565b6060611e0182612384565b611e0a57600080fd5b601260008381526020019081526020016000208054600181600116156101000203166002900480601f016020809104026020016040519081016040528092919081815260200182805460018160011615610100020316600290048015611eb15780601f10611e8657610100808354040283529160200191611eb1565b820191906000526020600020905b815481529060010190602001808311611e9457829003601f168201915b50505050509050919050565b606060118054600181600116156101000203166002900480601f016020809104026020016040519081016040528092919081815260200182805460018160011615610100020316600290048015611f555780601f10611f2a57610100808354040283529160200191611f55565b820191906000526020600020905b815481529060010190602001808311611f3857829003601f168201915b5050505050905090565b6000600560008473ffffffffffffffffffffffffffffffffffffffff1673ffffffffffffffffffffffffffffffffffffffff16815260200190815260200160002060008373ffffffffffffffffffffffffffffffffffffffff1673ffffffffffffffffffffffffffffffffffffffff16815260200190815260200160002060009054906101000a900460ff16905092915050565b3373ffffffffffffffffffffffffffffffffffffffff166000809054906101000a900473ffffffffffffffffffffffffffffffffffffffff1673ffffffffffffffffffffffffffffffffffffffff16146120b5576040517f08c379a000000000000000000000000000000000000000000000000000000000815260040180806020018281038252601e8152602001807f4d757374206265206f776e6572206f66207468697320636f6e7472616374000081525060200191505060405180910390fd5b600073ffffffffffffffffffffffffffffffffffffffff168173ffffffffffffffffffffffffffffffffffffffff16146121ae57806000806101000a81548173ffffffffffffffffffffffffffffffffffffffff021916908373ffffffffffffffffffffffffffffffffffffffff1602179055507f595ee9ffef04d4d652b768860c56905a48f5ab79124bb3b2279df1885536991d6000809054906101000a900473ffffffffffffffffffffffffffffffffffffffff16604051808273ffffffffffffffffffffffffffffffffffffffff1673ffffffffffffffffffffffffffffffffffffffff16815260200191505060405180910390a15b50565b6000816000600281106121c057fe5b6020020151826001600281106121d257fe5b6020020151604051602001808381526020018281526020019250505060405160208183030381529060405280519060200120905061220e613665565b604051806040016040528060165481526020013373ffffffffffffffffffffffffffffffffffffffff168152509050601481908060018154018082558091505090600182039060005260206000209060020201600090919290919091506000820151816000015560208201518160010160006101000a81548173ffffffffffffffffffffffffffffffffffffffff021916908373ffffffffffffffffffffffffffffffffffffffff16021790555050505080601560008481526020019081526020016000206000820151816000015560208201518160010160006101000a81548173ffffffffffffffffffffffffffffffffffffffff021916908373ffffffffffffffffffffffffffffffffffffffff1602179055509050507f6194b921a50fb7b0ad8f966ed68dd58eca78222431c684757b08e7b6121e00b26016546040518082815260200191505060405180910390a1612376600160165461281890919063ffffffff16565b601681905550505050505050565b6000806002600084815260200190815260200160002060009054906101000a900473ffffffffffffffffffffffffffffffffffffffff169050600073ffffffffffffffffffffffffffffffffffffffff168173ffffffffffffffffffffffffffffffffffffffff161415915050919050565b60008061240283611857565b90508073ffffffffffffffffffffffffffffffffffffffff168473ffffffffffffffffffffffffffffffffffffffff16148061247157508373ffffffffffffffffffffffffffffffffffffffff1661245984611039565b73ffffffffffffffffffffffffffffffffffffffff16145b8061248257506124818185611f5f565b5b91505092915050565b6124968383836128a0565b6124a08382612b18565b6124aa8282612cb6565b505050565b6124b98282612d7d565b6124c38282612cb6565b6124cc81612f9a565b5050565b6124d981612384565b61254b576040517f08c379a00000000000000000000000000000000000000000000000000000000081526004018080602001828103825260148152602001807f546f6b656e20646f6573206e6f7420657869737400000000000000000000000081525060200191505060405180910390fd5b6125f760118054600181600116156101000203166002900480601f0160208091040260200160405190810160405280929190818152602001828054600181600116156101000203166002900480156125e45780601f106125b9576101008083540402835291602001916125e4565b820191906000526020600020905b8154815290600101906020018083116125c757829003601f168201915b50505050506125f283612fe6565b613113565b60126000838152602001908152602001600020908051906020019061261d929190613695565b5050565b600081600001549050919050565b60006126508473ffffffffffffffffffffffffffffffffffffffff16613157565b61265d5760019050612810565b60008473ffffffffffffffffffffffffffffffffffffffff1663150b7a02338887876040518563ffffffff1660e01b8152600401808573ffffffffffffffffffffffffffffffffffffffff1673ffffffffffffffffffffffffffffffffffffffff1681526020018473ffffffffffffffffffffffffffffffffffffffff1673ffffffffffffffffffffffffffffffffffffffff16815260200183815260200180602001828103825283818151815260200191508051906020019080838360005b8381101561273857808201518184015260208101905061271d565b50505050905090810190601f1680156127655780820380516001836020036101000a031916815260200191505b5095505050505050602060405180830381600087803b15801561278757600080fd5b505af115801561279b573d6000803e3d6000fd5b505050506040513d60208110156127b157600080fd5b8101908080519060200190929190505050905063150b7a0260e01b7bffffffffffffffffffffffffffffffffffffffffffffffffffffffff1916817bffffffffffffffffffffffffffffffffffffffffffffffffffffffff1916149150505b949350505050565b600080828401905083811015612896576040517f08c379a000000000000000000000000000000000000000000000000000000000815260040180806020018281038252601b8152602001807f536166654d6174683a206164646974696f6e206f766572666c6f77000000000081525060200191505060405180910390fd5b8091505092915050565b6128a981611857565b73ffffffffffffffffffffffffffffffffffffffff168373ffffffffffffffffffffffffffffffffffffffff161461292c576040517f08c379a000000000000000000000000000000000000000000000000000000000815260040180806020018281038252602c815260200180613767602c913960400191505060405180910390fd5b600073ffffffffffffffffffffffffffffffffffffffff168273ffffffffffffffffffffffffffffffffffffffff1614156129cf576040517f08c379a000000000000000000000000000000000000000000000000000000000815260040180806020018281038252601e8152602001807f44657374696e6174696f6e206164647265737320697320696e76616c6964000081525060200191505060405180910390fd5b6129d8816131a2565b612a1f600460008573ffffffffffffffffffffffffffffffffffffffff1673ffffffffffffffffffffffffffffffffffffffff168152602001908152602001600020613260565b612a66600460008473ffffffffffffffffffffffffffffffffffffffff1673ffffffffffffffffffffffffffffffffffffffff168152602001908152602001600020613283565b816002600083815260200190815260200160002060006101000a81548173ffffffffffffffffffffffffffffffffffffffff021916908373ffffffffffffffffffffffffffffffffffffffff160217905550808273ffffffffffffffffffffffffffffffffffffffff168473ffffffffffffffffffffffffffffffffffffffff167fddf252ad1be2c89b69c2b068fc378daa952ba7f163c4a11628f55a4df523b3ef60405160405180910390a4505050565b6000612b706001600660008673ffffffffffffffffffffffffffffffffffffffff1673ffffffffffffffffffffffffffffffffffffffff1681526020019081526020016000208054905061329990919063ffffffff16565b9050600060076000848152602001908152602001600020549050818114612c5d576000600660008673ffffffffffffffffffffffffffffffffffffffff1673ffffffffffffffffffffffffffffffffffffffff1681526020019081526020016000208381548110612bdd57fe5b9060005260206000200154905080600660008773ffffffffffffffffffffffffffffffffffffffff1673ffffffffffffffffffffffffffffffffffffffff1681526020019081526020016000208381548110612c3557fe5b9060005260206000200181905550816007600083815260200190815260200160002081905550505b600660008573ffffffffffffffffffffffffffffffffffffffff1673ffffffffffffffffffffffffffffffffffffffff168152602001908152602001600020805480919060019003612caf9190613715565b5050505050565b600660008373ffffffffffffffffffffffffffffffffffffffff1673ffffffffffffffffffffffffffffffffffffffff168152602001908152602001600020805490506007600083815260200190815260200160002081905550600660008373ffffffffffffffffffffffffffffffffffffffff1673ffffffffffffffffffffffffffffffffffffffff1681526020019081526020016000208190806001815401808255809150509060018203906000526020600020016000909192909190915055505050565b60001515612d8a82612384565b151514612dff576040517f08c379a00000000000000000000000000000000000000000000000000000000081526004018080602001828103825260148152602001807f546f6b656e20616c72656164792065786973747300000000000000000000000081525060200191505060405180910390fd5b600073ffffffffffffffffffffffffffffffffffffffff168273ffffffffffffffffffffffffffffffffffffffff161415612ea2576040517f08c379a000000000000000000000000000000000000000000000000000000000815260040180806020018281038252601e8152602001807f44657374696e6174696f6e206164647265737320697320696e76616c6964000081525060200191505060405180910390fd5b816002600083815260200190815260200160002060006101000a81548173ffffffffffffffffffffffffffffffffffffffff021916908373ffffffffffffffffffffffffffffffffffffffff160217905550612f3b600460008473ffffffffffffffffffffffffffffffffffffffff1673ffffffffffffffffffffffffffffffffffffffff168152602001908152602001600020613283565b808273ffffffffffffffffffffffffffffffffffffffff163373ffffffffffffffffffffffffffffffffffffffff167fddf252ad1be2c89b69c2b068fc378daa952ba7f163c4a11628f55a4df523b3ef60405160405180910390a45050565b6008805490506009600083815260200190815260200160002081905550600881908060018154018082558091505090600182039060005260206000200160009091929091909150555050565b6060600082141561302e576040518060400160405280600181526020017f3000000000000000000000000000000000000000000000000000000000000000815250905061310e565b600082905060005b60008214613058578080600101915050600a828161305057fe5b049150613036565b6060816040519080825280601f01601f19166020018201604052801561308d5781602001600182028038833980820191505090505b50905060006001830390505b6000861461310657600a86816130ab57fe5b0660300160f81b828280600190039350815181106130c557fe5b60200101907effffffffffffffffffffffffffffffffffffffffffffffffffffffffffffff1916908160001a905350600a86816130fe57fe5b049550613099565b819450505050505b919050565b606061314f83836040518060200160405280600081525060405180602001604052806000815250604051806020016040528060008152506132e3565b905092915050565b60008060007fc5d2460186f7233c927e7db2dcc703c0e500b653ca82273b7bfad8045d85a47060001b9050833f915080821415801561319957506000801b8214155b92505050919050565b600073ffffffffffffffffffffffffffffffffffffffff166003600083815260200190815260200160002060009054906101000a900473ffffffffffffffffffffffffffffffffffffffff1673ffffffffffffffffffffffffffffffffffffffff161461325d5760006003600083815260200190815260200160002060006101000a81548173ffffffffffffffffffffffffffffffffffffffff021916908373ffffffffffffffffffffffffffffffffffffffff1602179055505b50565b6132786001826000015461329990919063ffffffff16565b816000018190555050565b6001816000016000828254019250508190555050565b60006132db83836040518060400160405280601e81526020017f536166654d6174683a207375627472616374696f6e206f766572666c6f7700008152506135a5565b905092915050565b6060808690506060869050606086905060608690506060869050606081518351855187518951010101016040519080825280601f01601f19166020018201604052801561333f5781602001600182028038833980820191505090505b509050606081905060008090506000809050600090505b88518110156133c45788818151811061336b57fe5b602001015160f81c60f81b83838060010194508151811061338857fe5b60200101907effffffffffffffffffffffffffffffffffffffffffffffffffffffffffffff1916908160001a9053508080600101915050613356565b600090505b8751811015613437578781815181106133de57fe5b602001015160f81c60f81b8383806001019450815181106133fb57fe5b60200101907effffffffffffffffffffffffffffffffffffffffffffffffffffffffffffff1916908160001a90535080806001019150506133c9565b600090505b86518110156134aa5786818151811061345157fe5b602001015160f81c60f81b83838060010194508151811061346e57fe5b60200101907effffffffffffffffffffffffffffffffffffffffffffffffffffffffffffff1916908160001a905350808060010191505061343c565b600090505b855181101561351d578581815181106134c457fe5b602001015160f81c60f81b8383806001019450815181106134e157fe5b60200101907effffffffffffffffffffffffffffffffffffffffffffffffffffffffffffff1916908160001a90535080806001019150506134af565b600090505b84518110156135905784818151811061353757fe5b602001015160f81c60f81b83838060010194508151811061355457fe5b60200101907effffffffffffffffffffffffffffffffffffffffffffffffffffffffffffff1916908160001a9053508080600101915050613522565b82995050505050505050505095945050505050565b6000838311158290613652576040517f08c379a00000000000000000000000000000000000000000000000000000000081526004018080602001828103825283818151815260200191508051906020019080838360005b838110156136175780820151818401526020810190506135fc565b50505050905090810190601f1680156136445780820380516001836020036101000a031916815260200191505b509250505060405180910390fd5b5060008385039050809150509392505050565b604051806040016040528060008152602001600073ffffffffffffffffffffffffffffffffffffffff1681525090565b828054600181600116156101000203166002900490600052602060002090601f016020900481019282601f106136d657805160ff1916838001178555613704565b82800160010185558215613704579182015b828111156137035782518255916020019190600101906136e8565b5b5090506137119190613741565b5090565b81548183558181111561373c5781836000526020600020918201910161373b9190613741565b5b505050565b61376391905b8082111561375f576000816000905550600101613747565b5090565b9056fe4f726967696e2061646472657373206973206e6f7420746865206f776e6572206f662074686520746f6b656e416464726573732063616e6e6f7420626520617070726f7665642e204164647265737320697320616c7265616479206f776e6572206f6620746f6b656e2ea265627a7a72315820794923dd739387fe12cf61d99312c1fb04df6bc4cce114121b823941a39cfa9964736f6c634300050b0032608060405234801561001057600080fd5b506110fc806100206000396000f3fe608060405234801561001057600080fd5b506004361061002b5760003560e01c8063621e9ec014610030575b600080fd5b61018f600480360361014081101561004757600080fd5b8101908080604001906002806020026040519081016040528092919082600260200280828437600081840152601f19601f82011690508083019250505050505091929192908060800190600280602002604051908101604052809291906000905b828210156100fc578382604002016002806020026040519081016040528092919082600260200280828437600081840152601f19601f820116905080830192505050505050815260200190600101906100a8565b50505050919291929080604001906002806020026040519081016040528092919082600260200280828437600081840152601f19601f820116905080830192505050505050919291929080604001906002806020026040519081016040528092919082600260200280828437600081840152601f19601f82011690508083019250505050505091929192905050506101a9565b604051808215151515815260200191505060405180910390f35b60006101b3610f49565b6040518060400160405280876000600281106101cb57fe5b60200201518152602001876001600281106101e257fe5b60200201518152508160000181905250604051806040016040528060405180604001604052808860006002811061021557fe5b602002015160006002811061022657fe5b602002015181526020018860006002811061023d57fe5b602002015160016002811061024e57fe5b6020020151815250815260200160405180604001604052808860016002811061027357fe5b602002015160006002811061028457fe5b602002015181526020018860016002811061029b57fe5b60200201516001600281106102ac57fe5b602002015181525081525081602001819052506040518060400160405280856000600281106102d757fe5b60200201518152602001856001600281106102ee57fe5b60200201518152508160400181905250606060026040519080825280602002602001820160405280156103305781602001602082028038833980820191505090505b50905060008090505b60028110156103785784816002811061034e57fe5b602002015182828151811061035f57fe5b6020026020010181815250508080600101915050610339565b50600061038582846103f0565b14156103e1577f3f3cfdb26fb5f9f1786ab4f1a1f9cd4c0b5e726cbdfc26e495261731aad44e396040518080602001828103825260228152602001806110a66022913960400191505060405180910390a16001925050506103e8565b6000925050505b949350505050565b6000807f30644e72e131a029b85045b68181585d2833e84879b9709143e1f593f0000001905061041e610f7c565b610426610562565b905080608001515160018651011461043d57600080fd5b610445610fc3565b6040518060400160405280600081526020016000815250905060008090505b86518110156104db578387828151811061047a57fe5b60200260200101511061048c57600080fd5b6104cc826104c7856080015160018501815181106104a657fe5b60200260200101518a85815181106104ba57fe5b60200260200101516109af565b610a43565b91508080600101915050610464565b506104fe8183608001516000815181106104f157fe5b6020026020010151610a43565b90506105448560000151866020015161051684610af6565b85604001516105288a60400151610af6565b876060015161053a8960000151610af6565b8960200151610b90565b610554576001935050505061055c565b600093505050505b92915050565b61056a610f7c565b60405180604001604052807f2bd3017a5cca1ac5bdae8f4fcd64ca55b21a1a2f870b9f476a9289e1c20b1d2881526020017f1d8fd4e706a34b20cebb76071453a173a66164dd106f71cbd272e2c14c1b32f88152508160000181905250604051806040016040528060405180604001604052807f1d01abbbacc4364693d737d95086ac807eb973de46608c7a8a25e2693ca19d7481526020017f1ddc69bb75283b7208e645aec0286e8f20e38c3c97ac1aca19dee81e46094854815250815260200160405180604001604052807f2d52ccdf153c24dc97d632aebd1d16aa9e98715badfb23fc9f4b1ef264a9239d81526020017f09da3b2884f7f32c25f740a381618c63b53054c4b13daf477ea9ab0315df94398152508152508160200181905250604051806040016040528060405180604001604052807f2b5dc79e3c58cb0637f9313b9413c6e3cde5e5198afa21d93071677870542be781526020017f1367204fcdd6c51903ff24927714b26b8b31cf8e74e812f814c7bb5b882488fb815250815260200160405180604001604052807ed016eb4ebc8cbab423e1df6de159462756d9174a3cd5011eb03f930acf4b3681526020017f2ed97c614234c26d482747d587df21f3385544b6f80c1681167ba76b24cf86418152508152508160400181905250604051806040016040528060405180604001604052807f26c202c33a80c625d909f3e3e2264709a5f4a8b0aaf8ba1997ac0f9ba7cf501f81526020017f2de7d5eedd4a475a7dab7370283abe09e87818d05fa20cfa3456aefb2f23cd17815250815260200160405180604001604052807f1d5d98066a075a6fe159d176d927601b4f12ee151f1553e9c12a7f419385cf5a81526020017f2e55f4b25da3d148c9f5610958e51744f83674c03f7d637bf4634c8143e43d7d8152508152508160600181905250600360405190808252806020026020018201604052801561085057816020015b61083d610fdd565b8152602001906001900390816108355790505b50816080018190525060405180604001604052807f0b928f63da58b09e7661d6996e37a974f5203c10da5f2c7ba29adf643d78d27281526020017f1fa8a36145151e9225582b46abb2f574c0498e004bec16d8fd14b728d3ca769181525081608001516000815181106108bf57fe5b602002602001018190525060405180604001604052807f12819ed20b11aa86a96e7f666cf4ac4b3893a03d17d63e4cd0a1fe1a4628a4e481526020017f16c9326d452942939cd8712e4298f261dae636475bbe4d9640c071e566fc3832815250816080015160018151811061093057fe5b602002602001018190525060405180604001604052807f27005b9e1419aa99c8377eecc5ce353fa21fc0e2f591f5675c47e3365dd1314b81526020017f2acad6cc83b0c86d47cbffec57ba313aa59588f5d6fa7656f7744c55f4f80feb81525081608001516002815181106109a157fe5b602002602001018190525090565b6109b7610fc3565b6109bf610ff7565b8360000151816000600381106109d157fe5b6020020181815250508360200151816001600381106109ec57fe5b6020020181815250508281600260038110610a0357fe5b6020020181815250506000606083608084600060076107d05a03f190508060008114610a2e57610a30565bfe5b5080610a3b57600080fd5b505092915050565b610a4b610fc3565b610a53611019565b836000015181600060048110610a6557fe5b602002018181525050836020015181600160048110610a8057fe5b602002018181525050826000015181600260048110610a9b57fe5b602002018181525050826020015181600360048110610ab657fe5b602002018181525050600060608360c084600060066107d05a03f190508060008114610ae157610ae3565bfe5b5080610aee57600080fd5b505092915050565b610afe610fc3565b60007f30644e72e131a029b85045b68181585d97816a916871ca8d3c208c16d87cfd47905060008360000151148015610b3b575060008360200151145b15610b5f576040518060400160405280600081526020016000815250915050610b8b565b60405180604001604052808460000151815260200182856020015181610b8157fe5b0683038152509150505b919050565b600060606004604051908082528060200260200182016040528015610bcf57816020015b610bbc610fdd565b815260200190600190039081610bb45790505b50905060606004604051908082528060200260200182016040528015610c0f57816020015b610bfc61103b565b815260200190600190039081610bf45790505b5090508a82600081518110610c2057fe5b60200260200101819052508882600181518110610c3957fe5b60200260200101819052508682600281518110610c5257fe5b60200260200101819052508482600381518110610c6b57fe5b60200260200101819052508981600081518110610c8457fe5b60200260200101819052508781600181518110610c9d57fe5b60200260200101819052508581600281518110610cb657fe5b60200260200101819052508381600381518110610ccf57fe5b6020026020010181905250610ce48282610cf4565b9250505098975050505050505050565b60008151835114610d0457600080fd5b6000835190506000600682029050606081604051908082528060200260200182016040528015610d435781602001602082028038833980820191505090505b50905060008090505b83811015610ee957868181518110610d6057fe5b602002602001015160000151826000600684020181518110610d7e57fe5b602002602001018181525050868181518110610d9657fe5b602002602001015160200151826001600684020181518110610db457fe5b602002602001018181525050858181518110610dcc57fe5b602002602001015160000151600060028110610de457fe5b6020020151826002600684020181518110610dfb57fe5b602002602001018181525050858181518110610e1357fe5b602002602001015160000151600160028110610e2b57fe5b6020020151826003600684020181518110610e4257fe5b602002602001018181525050858181518110610e5a57fe5b602002602001015160200151600060028110610e7257fe5b6020020151826004600684020181518110610e8957fe5b602002602001018181525050858181518110610ea157fe5b602002602001015160200151600160028110610eb957fe5b6020020151826005600684020181518110610ed057fe5b6020026020010181815250508080600101915050610d4c565b50610ef2611061565b60006020826020860260208601600060086107d05a03f190508060008114610f1957610f1b565bfe5b5080610f2657600080fd5b600082600060018110610f3557fe5b602002015114159550505050505092915050565b6040518060600160405280610f5c610fdd565b8152602001610f6961103b565b8152602001610f76610fdd565b81525090565b6040518060a00160405280610f8f610fdd565b8152602001610f9c61103b565b8152602001610fa961103b565b8152602001610fb661103b565b8152602001606081525090565b604051806040016040528060008152602001600081525090565b604051806040016040528060008152602001600081525090565b6040518060600160405280600390602082028038833980820191505090505090565b6040518060800160405280600490602082028038833980820191505090505090565b604051806040016040528061104e611083565b815260200161105b611083565b81525090565b6040518060200160405280600190602082028038833980820191505090505090565b604051806040016040528060029060208202803883398082019150509050509056fe5472616e73616374696f6e207375636365737366756c6c792076657269666965642ea265627a7a72315820b728ed0da8a5d522bf9e712b93264b8e45938b4f48746ef90fa44dc452b9dc0d64736f6c634300050b003268747470733a2f2f73332d75732d776573742d322e616d617a6f6e6177732e636f6d2f756461636974792d626c6f636b636861696e2f63617073746f6e652f",
  "source": "// SPDX-License-Identifier: UNLICENSED\npragma solidity ^0.5.11;\n\nimport \"./verifier.sol\";\nimport \"./ERC721Mintable.sol\";\nimport \"openzeppelin-solidity/contracts/math/SafeMath.sol\";\n\n// TODO define a contract call to the zokrates generated solidity contract <Verifier> or <renamedVerifier>\n\n// TODO define another contract named SolnSquareVerifier that inherits from your ERC721Mintable class\n\n// TODO define a solutions struct that can hold an index & an address\n\n// TODO define an array of the above struct\n\n// TODO define a mapping to store unique solutions submitted\n\n// TODO Create an event to emit when a solution is added\n\n// TODO Create a function to add the solutions to the array and emit the event\n\n// TODO Create a function to mint new NFT only after the solution has been verified\n//  - make sure the solution is unique (has not been used before)\n//  - make sure you handle metadata as well as tokenSuplly\n\ncontract SolnSquareVerifier is ERC721MintableComplete {\n    Verifier private verifierContract = new Verifier();\n\n    struct Solution {\n        uint256 index;\n        address owner;\n    }\n\n    Solution[] private solutions;\n    mapping(bytes32 => Solution) uniqueSolutions;\n    uint256 private counter = 0;\n\n    event SolutionAdded(uint256 index);\n\n    constructor(string memory name, string memory symbol)\n        public\n        ERC721MintableComplete(name, symbol)\n    {}\n\n    // input formats are based on data in proof.json\n    // only add verified solutions\n    function addSolution(\n        uint256[2] memory a,\n        uint256[2][2] memory b,\n        uint256[2] memory c,\n        uint256[2] memory input\n    ) public {\n        bytes32 key = keccak256(abi.encodePacked(input[0], input[1]));\n\n        Solution memory newSolution = Solution(counter, msg.sender);\n        solutions.push(newSolution);\n        uniqueSolutions[key] = newSolution;\n\n        emit SolutionAdded(counter);\n        counter = counter.add(1);\n    }\n\n    function mintNFT(\n        address to,\n        uint256 tokenId,\n        uint256[2] memory a,\n        uint256[2][2] memory b,\n        uint256[2] memory c,\n        uint256[2] memory input\n    ) public {\n        bytes32 key = keccak256(abi.encodePacked(input[0], input[1]));\n        require(\n            uniqueSolutions[key].owner == address(0),\n            \"Solution is not unique\"\n        );\n\n        bool verified = verifierContract.verifyTx(a, b, c, input);\n        require(verified, \"Solution cannot be verified\");\n\n        addSolution(a, b, c, input);\n        super.mint(to, tokenId);\n    }\n}\n",
  "sourcePath": "/Users/violetwee/Documents/Blockchain/Capstone/Blockchain-Capstone-master/eth-contracts/contracts/SolnSquareVerifier.sol",
  "compiler": {
    "name": "solc",
    "version": "0.5.11+commit.c082d0b4.Emscripten.clang"
  },
  "schemaVersion": "3.4.3",
  "updatedAt": "2022-01-28T08:46:12.608Z",
  "networkType": "ethereum",
  "devdoc": {
    "methods": {
      "isApprovedForAll(address,address)": {
        "details": "Tells whether an operator is approved by a given owner",
        "params": {
          "operator": "operator address which you want to query the approval of",
          "owner": "owner address which you want to query the approval of"
        },
        "return": "bool whether the given operator is approved by the given owner"
      },
      "setApprovalForAll(address,bool)": {
        "details": "Sets or unsets the approval of a given operator An operator is allowed to transfer all tokens of the sender on their behalf",
        "params": {
          "approved": "representing the status of the approval to be set",
          "to": "operator address to set the approval"
        }
      },
      "supportsInterface(bytes4)": {
        "details": "implement supportsInterface(bytes4) using a lookup table"
      },
      "tokenByIndex(uint256)": {
        "details": "Gets the token ID at a given index of all the tokens in this contract Reverts if the index is greater or equal to the total number of tokens",
        "params": {
          "index": "uint256 representing the index to be accessed of the tokens list"
        },
        "return": "uint256 token ID at the given index of the tokens list"
      },
      "tokenOfOwnerByIndex(address,uint256)": {
        "details": "Gets the token ID at a given index of the tokens list of the requested owner",
        "params": {
          "index": "uint256 representing the index to be accessed of the requested tokens list",
          "owner": "address owning the tokens list to be accessed"
        },
        "return": "uint256 token ID at the given index of the tokens list owned by the requested address"
      },
      "totalSupply()": {
        "details": "Gets the total amount of tokens stored by the contract",
        "return": "uint256 representing the total amount of tokens"
      }
    }
  },
  "userdoc": {
    "methods": {}
  }
}